:100B11002054696D65732055702000204469676910
:0D0B210074616C20736F636B65743A200083
:0E0B4800C1000225003B022100000223000034
:080A3800C2A6D2A77F017E00D7
:100A4000E4FDFCC3ED9FEC9E5015E4FBFA0BBB00EC
:0F0A5000010AEB64704A70F50DBD00010C80E4E3
:010A5F002274
:0E0B57008FB0C2A5120A38C2A77F05020A405D
:0E0B65008FB0D2A5120A38C2A77F0A020A403A
:060A0D008B188A19891AFA
:100A1300E4F51BF51CAB18AA19A91A851C82851BC2
:100A230083120800FF600D120B65051CE51C70E5C1
:040A3300051B80E13E
:010A3700229C
:100AD2007F147E00120A407F38120B577F0C120BD4
:100AE200577F06120B577F01120B577F80020B575D
:10094400AE23AF247C007D0A12082DEF2430F50875
:10095400AE23AF247C007D0A12082DED2430F50966
:10096400750A3AAE21AF227C007D0A12082DEF24CD
:1009740030F50BAE21AF227C007D0A12082DED2448
:1009840030F50C750D3AAE25AF267C007D0A1208B1
:100994002DEF2430F50EAE25AF267C007D0A12081B
:1009A4002DED2430F50FE4F5107FC0120B577B00BA
:0709B4007A007908020A0D28
:100A6000E524152470021523D3E5249400E52364BE
:100A70008094805012C2947FC0120B577BFF7A0B78
:080A80007911120A0D80F02229
:100AF200E522152270021521D3E5229400E5216436
:0F0B0200809480500975210075223B120A6022F1
:100A8800E526152670021525D3E5269400E525648C
:100A9800809480500975250075263B120AF21209C8
:080AA800447FE87E03020A40CE
:100AB000D294120A882093FAE4F523F524F521F55F
:100AC00022F52575263B120944C2947FE87E030275
:020AD0000A40DA
:1009BB002090220524E52470020523D39405E5231A
:1009CB00648094804005E4F523F5241209447FE804
:1009DB007E03120A402091220522E5227002052196
:1009EB00D3943BE521648094804005E4F521F52206
:1009FB001209447FE87E03120A402092B3120AB018
:020A0B0080AEBB
:100B2E0075900F120AD27F80120B577BFF7A0B79CA
:0A0B3E001C120A0D1209440209BB43
:030000000208B83B
:0C08B800787FE4F6D8FD7581260208FF69
:10080000BB010CE58229F582E5833AF583E02250AD
:1008100006E92582F8E622BBFE06E92582F8E222F7
:0D082000E58229F582E5833AF583E4932211
:10082D00C2D5EC30E709B2D5E4C39DFDE49CFCEEE6
:10083D0030E715B2D5E4C39FFFE49EFE120863C3F3
:10084D00E49DFDE49CFC800312086330D507C3E4EE
:06085D009FFFE49EFE2255
:1008C400020B2EE493A3F8E493A34003F68001F211
:1008D40008DFF48029E493A3F85407240CC8C33335
:1008E400C4540F4420C8834004F456800146F6DF04
:1008F400E4800B0102040810204080900B48E47E41
:10090400019360BCA3FF543F30E509541FFEE493F8
:10091400A360010ECF54C025E060A840B8E493A3BF
:10092400FAE493A3F8E493A3C8C582C8CAC583CAEA
:10093400F0A3C8C582C8CAC583CADFE9DEE780BEA2
:010B5600009E
:10086300BC000BBE0029EF8DF084FFADF022E4CC79
:10087300F875F008EF2FFFEE33FEEC33FCEE9DEC42
:10088300984005FCEE9DFE0FD5F0E9E4CEFD22ED88
:10089300F8F5F0EE8420D21CFEADF075F008EF2FD2
:1008A300FFED33FD4007985006D5F0F222C398FDC3
:0508B3000FD5F0EA2260
:00000001FF
